{
  "_format": "hh-sol-artifact-1",
  "contractName": "DecentralizedCab",
  "sourceName": "contracts/DecentralizedCab.sol",
  "abi": [
    {
      "inputs": [],
      "stateMutability": "nonpayable",
      "type": "constructor"
    },
    {
      "anonymous": false,
      "inputs": [
        {
          "indexed": true,
          "internalType": "uint256",
          "name": "rideId",
          "type": "uint256"
        },
        {
          "indexed": true,
          "internalType": "address",
          "name": "user",
          "type": "address"
        },
        {
          "indexed": true,
          "internalType": "address",
          "name": "driver",
          "type": "address"
        }
      ],
      "name": "RideCompleted",
      "type": "event"
    },
    {
      "anonymous": false,
      "inputs": [
        {
          "indexed": true,
          "internalType": "uint256",
          "name": "rideId",
          "type": "uint256"
        },
        {
          "indexed": true,
          "internalType": "address",
          "name": "driver",
          "type": "address"
        }
      ],
      "name": "RideReceived",
      "type": "event"
    },
    {
      "inputs": [
        {
          "internalType": "uint256",
          "name": "rideId",
          "type": "uint256"
        }
      ],
      "name": "completeRide",
      "outputs": [],
      "stateMutability": "nonpayable",
      "type": "function"
    },
    {
      "inputs": [
        {
          "internalType": "uint256",
          "name": "rideId",
          "type": "uint256"
        }
      ],
      "name": "getRide",
      "outputs": [
        {
          "components": [
            {
              "internalType": "uint256",
              "name": "id",
              "type": "uint256"
            },
            {
              "internalType": "address",
              "name": "user",
              "type": "address"
            },
            {
              "internalType": "address",
              "name": "driver",
              "type": "address"
            },
            {
              "internalType": "string",
              "name": "pickupLocation",
              "type": "string"
            },
            {
              "internalType": "string",
              "name": "dropoffLocation",
              "type": "string"
            },
            {
              "internalType": "bool",
              "name": "isCompleted",
              "type": "bool"
            }
          ],
          "internalType": "struct DecentralizedCab.Ride",
          "name": "",
          "type": "tuple"
        }
      ],
      "stateMutability": "view",
      "type": "function"
    },
    {
      "inputs": [
        {
          "internalType": "uint256",
          "name": "rideId",
          "type": "uint256"
        }
      ],
      "name": "receiveRide",
      "outputs": [],
      "stateMutability": "nonpayable",
      "type": "function"
    },
    {
      "inputs": [
        {
          "internalType": "string",
          "name": "pickupLocation",
          "type": "string"
        },
        {
          "internalType": "string",
          "name": "dropoffLocation",
          "type": "string"
        }
      ],
      "name": "requestRide",
      "outputs": [
        {
          "internalType": "uint256",
          "name": "",
          "type": "uint256"
        }
      ],
      "stateMutability": "nonpayable",
      "type": "function"
    },
    {
      "inputs": [],
      "name": "rideCounter",
      "outputs": [
        {
          "internalType": "uint256",
          "name": "",
          "type": "uint256"
        }
      ],
      "stateMutability": "view",
      "type": "function"
    },
    {
      "inputs": [
        {
          "internalType": "uint256",
          "name": "",
          "type": "uint256"
        }
      ],
      "name": "rides",
      "outputs": [
        {
          "internalType": "uint256",
          "name": "id",
          "type": "uint256"
        },
        {
          "internalType": "address",
          "name": "user",
          "type": "address"
        },
        {
          "internalType": "address",
          "name": "driver",
          "type": "address"
        },
        {
          "internalType": "string",
          "name": "pickupLocation",
          "type": "string"
        },
        {
          "internalType": "string",
          "name": "dropoffLocation",
          "type": "string"
        },
        {
          "internalType": "bool",
          "name": "isCompleted",
          "type": "bool"
        }
      ],
      "stateMutability": "view",
      "type": "function"
    }
  ],
  "bytecode": "0x608060405234801561001057600080fd5b50600080819055506112c6806100276000396000f3fe608060405234801561001057600080fd5b50600436106100625760003560e01c80635205f112146100675780637c7b0ff41461009c57806399b4726e146100cc578063ac4bfb03146100e8578063b10fefc014610118578063c416dd0b14610136575b600080fd5b610081600480360381019061007c9190610c71565b610152565b60405161009396959493929190610fd9565b60405180910390f35b6100b660048036038101906100b19190610c71565b6102eb565b6040516100c39190610f9c565b60405180910390f35b6100e660048036038101906100e19190610c71565b61050d565b005b61010260048036038101906100fd9190610c05565b6106d6565b60405161010f9190610fbe565b60405180910390f35b610120610862565b60405161012d9190610fbe565b60405180910390f35b610150600480360381019061014b9190610c71565b610868565b005b60016020528060005260406000206000915090508060000154908060010160009054906101000a900473ffffffffffffffffffffffffffffffffffffffff16908060020160009054906101000a900473ffffffffffffffffffffffffffffffffffffffff16908060030180546101c790611160565b80601f01602080910402602001604051908101604052809291908181526020018280546101f390611160565b80156102405780601f1061021557610100808354040283529160200191610240565b820191906000526020600020905b81548152906001019060200180831161022357829003601f168201915b50505050509080600401805461025590611160565b80601f016020809104026020016040519081016040528092919081815260200182805461028190611160565b80156102ce5780601f106102a3576101008083540402835291602001916102ce565b820191906000526020600020905b8154815290600101906020018083116102b157829003601f168201915b5050505050908060050160009054906101000a900460ff16905086565b6102f3610a81565b600160008381526020019081526020016000206040518060c0016040529081600082015481526020016001820160009054906101000a900473ffffffffffffffffffffffffffffffffffffffff1673ffffffffffffffffffffffffffffffffffffffff1673ffffffffffffffffffffffffffffffffffffffff1681526020016002820160009054906101000a900473ffffffffffffffffffffffffffffffffffffffff1673ffffffffffffffffffffffffffffffffffffffff1673ffffffffffffffffffffffffffffffffffffffff1681526020016003820180546103d790611160565b80601f016020809104026020016040519081016040528092919081815260200182805461040390611160565b80156104505780601f1061042557610100808354040283529160200191610450565b820191906000526020600020905b81548152906001019060200180831161043357829003601f168201915b5050505050815260200160048201805461046990611160565b80601f016020809104026020016040519081016040528092919081815260200182805461049590611160565b80156104e25780601f106104b7576101008083540402835291602001916104e2565b820191906000526020600020905b8154815290600101906020018083116104c557829003601f168201915b505050505081526020016005820160009054906101000a900460ff1615151515815250509050919050565b6000600160008381526020019081526020016000209050600073ffffffffffffffffffffffffffffffffffffffff168160020160009054906101000a900473ffffffffffffffffffffffffffffffffffffffff1673ffffffffffffffffffffffffffffffffffffffff16146105b7576040517f08c379a00000000000000000000000000000000000000000000000000000000081526004016105ae90610f3c565b60405180910390fd5b600073ffffffffffffffffffffffffffffffffffffffff168160010160009054906101000a900473ffffffffffffffffffffffffffffffffffffffff1673ffffffffffffffffffffffffffffffffffffffff16141561064b576040517f08c379a000000000000000000000000000000000000000000000000000000000815260040161064290610f5c565b60405180910390fd5b338160020160006101000a81548173ffffffffffffffffffffffffffffffffffffffff021916908373ffffffffffffffffffffffffffffffffffffffff1602179055503373ffffffffffffffffffffffffffffffffffffffff16827ff510b73b1a1418a065ffaf41dc23a2ef0e4d53567f868128f2ea577023bb54cc60405160405180910390a35050565b60008060008154809291906106ea90611192565b91905055506040518060c0016040528060005481526020013373ffffffffffffffffffffffffffffffffffffffff168152602001600073ffffffffffffffffffffffffffffffffffffffff1681526020018481526020018381526020016000151581525060016000805481526020019081526020016000206000820151816000015560208201518160010160006101000a81548173ffffffffffffffffffffffffffffffffffffffff021916908373ffffffffffffffffffffffffffffffffffffffff16021790555060408201518160020160006101000a81548173ffffffffffffffffffffffffffffffffffffffff021916908373ffffffffffffffffffffffffffffffffffffffff1602179055506060820151816003019080519060200190610816929190610ae5565b506080820151816004019080519060200190610833929190610ae5565b5060a08201518160050160006101000a81548160ff021916908315150217905550905050600054905092915050565b60005481565b60006001600083815260200190815260200160002090503373ffffffffffffffffffffffffffffffffffffffff168160010160009054906101000a900473ffffffffffffffffffffffffffffffffffffffff1673ffffffffffffffffffffffffffffffffffffffff16148061092c57503373ffffffffffffffffffffffffffffffffffffffff168160020160009054906101000a900473ffffffffffffffffffffffffffffffffffffffff1673ffffffffffffffffffffffffffffffffffffffff16145b61096b576040517f08c379a000000000000000000000000000000000000000000000000000000000815260040161096290610f1c565b60405180910390fd5b8060050160009054906101000a900460ff16156109bd576040517f08c379a00000000000000000000000000000000000000000000000000000000081526004016109b490610f7c565b60405180910390fd5b60018160050160006101000a81548160ff0219169083151502179055508060020160009054906101000a900473ffffffffffffffffffffffffffffffffffffffff1673ffffffffffffffffffffffffffffffffffffffff168160010160009054906101000a900473ffffffffffffffffffffffffffffffffffffffff1673ffffffffffffffffffffffffffffffffffffffff16837fbb9ddb6456449420650483e45fc8227727c1d6a1fc691cd8571ef4fb3e8f22fc60405160405180910390a45050565b6040518060c0016040528060008152602001600073ffffffffffffffffffffffffffffffffffffffff168152602001600073ffffffffffffffffffffffffffffffffffffffff16815260200160608152602001606081526020016000151581525090565b828054610af190611160565b90600052602060002090601f016020900481019282610b135760008555610b5a565b82601f10610b2c57805160ff1916838001178555610b5a565b82800160010185558215610b5a579182015b82811115610b59578251825591602001919060010190610b3e565b5b509050610b679190610b6b565b5090565b5b80821115610b84576000816000905550600101610b6c565b5090565b6000610b9b610b9684611079565b611048565b905082815260208101848484011115610bb357600080fd5b610bbe84828561111e565b509392505050565b600082601f830112610bd757600080fd5b8135610be7848260208601610b88565b91505092915050565b600081359050610bff81611279565b92915050565b60008060408385031215610c1857600080fd5b600083013567ffffffffffffffff811115610c3257600080fd5b610c3e85828601610bc6565b925050602083013567ffffffffffffffff811115610c5b57600080fd5b610c6785828601610bc6565b9150509250929050565b600060208284031215610c8357600080fd5b6000610c9184828501610bf0565b91505092915050565b610ca3816110d6565b82525050565b610cb2816110d6565b82525050565b610cc1816110e8565b82525050565b610cd0816110e8565b82525050565b6000610ce1826110a9565b610ceb81856110b4565b9350610cfb81856020860161112d565b610d0481611268565b840191505092915050565b6000610d1a826110a9565b610d2481856110c5565b9350610d3481856020860161112d565b610d3d81611268565b840191505092915050565b6000610d55602c836110c5565b91507f4f6e6c792072696465207061727469636970616e74732063616e20636f6d706c60008301527f65746520746865207269646500000000000000000000000000000000000000006020830152604082019050919050565b6000610dbb6012836110c5565b91507f5269646520616c72656164792074616b656e00000000000000000000000000006000830152602082019050919050565b6000610dfb600f836110c5565b91507f496e76616c6964207269646520494400000000000000000000000000000000006000830152602082019050919050565b6000610e3b6016836110c5565b91507f5269646520616c726561647920636f6d706c65746564000000000000000000006000830152602082019050919050565b600060c083016000830151610e866000860182610efe565b506020830151610e996020860182610c9a565b506040830151610eac6040860182610c9a565b5060608301518482036060860152610ec48282610cd6565b91505060808301518482036080860152610ede8282610cd6565b91505060a0830151610ef360a0860182610cb8565b508091505092915050565b610f0781611114565b82525050565b610f1681611114565b82525050565b60006020820190508181036000830152610f3581610d48565b9050919050565b60006020820190508181036000830152610f5581610dae565b9050919050565b60006020820190508181036000830152610f7581610dee565b9050919050565b60006020820190508181036000830152610f9581610e2e565b9050919050565b60006020820190508181036000830152610fb68184610e6e565b905092915050565b6000602082019050610fd36000830184610f0d565b92915050565b600060c082019050610fee6000830189610f0d565b610ffb6020830188610ca9565b6110086040830187610ca9565b818103606083015261101a8186610d0f565b9050818103608083015261102e8185610d0f565b905061103d60a0830184610cc7565b979650505050505050565b6000604051905081810181811067ffffffffffffffff8211171561106f5761106e611239565b5b8060405250919050565b600067ffffffffffffffff82111561109457611093611239565b5b601f19601f8301169050602081019050919050565b600081519050919050565b600082825260208201905092915050565b600082825260208201905092915050565b60006110e1826110f4565b9050919050565b60008115159050919050565b600073ffffffffffffffffffffffffffffffffffffffff82169050919050565b6000819050919050565b82818337600083830152505050565b60005b8381101561114b578082015181840152602081019050611130565b8381111561115a576000848401525b50505050565b6000600282049050600182168061117857607f821691505b6020821081141561118c5761118b61120a565b5b50919050565b600061119d82611114565b91507fffffffffffffffffffffffffffffffffffffffffffffffffffffffffffffffff8214156111d0576111cf6111db565b5b600182019050919050565b7f4e487b7100000000000000000000000000000000000000000000000000000000600052601160045260246000fd5b7f4e487b7100000000000000000000000000000000000000000000000000000000600052602260045260246000fd5b7f4e487b7100000000000000000000000000000000000000000000000000000000600052604160045260246000fd5b6000601f19601f8301169050919050565b61128281611114565b811461128d57600080fd5b5056fea264697066735822122005a68e8fc1b94eb7d820284f41d40138f19a08ac7e1511f2a740f0602774f6b664736f6c63430008000033",
  "linkReferences": {},
  "deployedLinkReferences": {}
}