{
  "_format": "hh-sol-artifact-1",
  "contractName": "DecentralizedCab",
  "sourceName": "contracts/DecentralizedCab.sol",
  "abi": [
    {
      "inputs": [],
      "stateMutability": "nonpayable",
      "type": "constructor"
    },
    {
      "anonymous": false,
      "inputs": [
        {
          "indexed": true,
          "internalType": "uint256",
          "name": "rideId",
          "type": "uint256"
        },
        {
          "indexed": true,
          "internalType": "address",
          "name": "user",
          "type": "address"
        },
        {
          "indexed": true,
          "internalType": "address",
          "name": "driver",
          "type": "address"
        }
      ],
      "name": "RideCompleted",
      "type": "event"
    },
    {
      "anonymous": false,
      "inputs": [
        {
          "indexed": true,
          "internalType": "uint256",
          "name": "rideId",
          "type": "uint256"
        },
        {
          "indexed": true,
          "internalType": "address",
          "name": "driver",
          "type": "address"
        }
      ],
      "name": "RideReceived",
      "type": "event"
    },
    {
      "anonymous": false,
      "inputs": [
        {
          "indexed": true,
          "internalType": "uint256",
          "name": "rideId",
          "type": "uint256"
        },
        {
          "indexed": true,
          "internalType": "address",
          "name": "user",
          "type": "address"
        },
        {
          "indexed": false,
          "internalType": "string",
          "name": "pickupLocation",
          "type": "string"
        },
        {
          "indexed": false,
          "internalType": "string",
          "name": "dropoffLocation",
          "type": "string"
        }
      ],
      "name": "RideRequested",
      "type": "event"
    },
    {
      "inputs": [
        {
          "internalType": "uint256",
          "name": "rideId",
          "type": "uint256"
        }
      ],
      "name": "completeRide",
      "outputs": [],
      "stateMutability": "nonpayable",
      "type": "function"
    },
    {
      "inputs": [
        {
          "internalType": "uint256",
          "name": "rideId",
          "type": "uint256"
        }
      ],
      "name": "getRide",
      "outputs": [
        {
          "components": [
            {
              "internalType": "uint256",
              "name": "id",
              "type": "uint256"
            },
            {
              "internalType": "address",
              "name": "user",
              "type": "address"
            },
            {
              "internalType": "address",
              "name": "driver",
              "type": "address"
            },
            {
              "internalType": "string",
              "name": "pickupLocation",
              "type": "string"
            },
            {
              "internalType": "string",
              "name": "dropoffLocation",
              "type": "string"
            },
            {
              "internalType": "bool",
              "name": "isCompleted",
              "type": "bool"
            }
          ],
          "internalType": "struct DecentralizedCab.Ride",
          "name": "",
          "type": "tuple"
        }
      ],
      "stateMutability": "view",
      "type": "function"
    },
    {
      "inputs": [
        {
          "internalType": "uint256",
          "name": "rideId",
          "type": "uint256"
        }
      ],
      "name": "receiveRide",
      "outputs": [],
      "stateMutability": "nonpayable",
      "type": "function"
    },
    {
      "inputs": [
        {
          "internalType": "string",
          "name": "pickupLocation",
          "type": "string"
        },
        {
          "internalType": "string",
          "name": "dropoffLocation",
          "type": "string"
        }
      ],
      "name": "requestRide",
      "outputs": [],
      "stateMutability": "nonpayable",
      "type": "function"
    },
    {
      "inputs": [],
      "name": "rideCounter",
      "outputs": [
        {
          "internalType": "uint256",
          "name": "",
          "type": "uint256"
        }
      ],
      "stateMutability": "view",
      "type": "function"
    },
    {
      "inputs": [
        {
          "internalType": "uint256",
          "name": "",
          "type": "uint256"
        }
      ],
      "name": "rides",
      "outputs": [
        {
          "internalType": "uint256",
          "name": "id",
          "type": "uint256"
        },
        {
          "internalType": "address",
          "name": "user",
          "type": "address"
        },
        {
          "internalType": "address",
          "name": "driver",
          "type": "address"
        },
        {
          "internalType": "string",
          "name": "pickupLocation",
          "type": "string"
        },
        {
          "internalType": "string",
          "name": "dropoffLocation",
          "type": "string"
        },
        {
          "internalType": "bool",
          "name": "isCompleted",
          "type": "bool"
        }
      ],
      "stateMutability": "view",
      "type": "function"
    }
  ],
  "bytecode": "0x608060405234801561001057600080fd5b5060008081905550611333806100276000396000f3fe608060405234801561001057600080fd5b50600436106100625760003560e01c80635205f112146100675780637c7b0ff41461009c57806399b4726e146100cc578063ac4bfb03146100e8578063b10fefc014610104578063c416dd0b14610122575b600080fd5b610081600480360381019061007c9190610ca7565b61013e565b60405161009396959493929190611046565b60405180910390f35b6100b660048036038101906100b19190610ca7565b6102d7565b6040516100c39190611009565b60405180910390f35b6100e660048036038101906100e19190610ca7565b6104f9565b005b61010260048036038101906100fd9190610c3b565b6106c2565b005b61010c610898565b604051610119919061102b565b60405180910390f35b61013c60048036038101906101379190610ca7565b61089e565b005b60016020528060005260406000206000915090508060000154908060010160009054906101000a900473ffffffffffffffffffffffffffffffffffffffff16908060020160009054906101000a900473ffffffffffffffffffffffffffffffffffffffff16908060030180546101b3906111cd565b80601f01602080910402602001604051908101604052809291908181526020018280546101df906111cd565b801561022c5780601f106102015761010080835404028352916020019161022c565b820191906000526020600020905b81548152906001019060200180831161020f57829003601f168201915b505050505090806004018054610241906111cd565b80601f016020809104026020016040519081016040528092919081815260200182805461026d906111cd565b80156102ba5780601f1061028f576101008083540402835291602001916102ba565b820191906000526020600020905b81548152906001019060200180831161029d57829003601f168201915b5050505050908060050160009054906101000a900460ff16905086565b6102df610ab7565b600160008381526020019081526020016000206040518060c0016040529081600082015481526020016001820160009054906101000a900473ffffffffffffffffffffffffffffffffffffffff1673ffffffffffffffffffffffffffffffffffffffff1673ffffffffffffffffffffffffffffffffffffffff1681526020016002820160009054906101000a900473ffffffffffffffffffffffffffffffffffffffff1673ffffffffffffffffffffffffffffffffffffffff1673ffffffffffffffffffffffffffffffffffffffff1681526020016003820180546103c3906111cd565b80601f01602080910402602001604051908101604052809291908181526020018280546103ef906111cd565b801561043c5780601f106104115761010080835404028352916020019161043c565b820191906000526020600020905b81548152906001019060200180831161041f57829003601f168201915b50505050508152602001600482018054610455906111cd565b80601f0160208091040260200160405190810160405280929190818152602001828054610481906111cd565b80156104ce5780601f106104a3576101008083540402835291602001916104ce565b820191906000526020600020905b8154815290600101906020018083116104b157829003601f168201915b505050505081526020016005820160009054906101000a900460ff1615151515815250509050919050565b6000600160008381526020019081526020016000209050600073ffffffffffffffffffffffffffffffffffffffff168160020160009054906101000a900473ffffffffffffffffffffffffffffffffffffffff1673ffffffffffffffffffffffffffffffffffffffff16146105a3576040517f08c379a000000000000000000000000000000000000000000000000000000000815260040161059a90610fa9565b60405180910390fd5b600073ffffffffffffffffffffffffffffffffffffffff168160010160009054906101000a900473ffffffffffffffffffffffffffffffffffffffff1673ffffffffffffffffffffffffffffffffffffffff161415610637576040517f08c379a000000000000000000000000000000000000000000000000000000000815260040161062e90610fc9565b60405180910390fd5b338160020160006101000a81548173ffffffffffffffffffffffffffffffffffffffff021916908373ffffffffffffffffffffffffffffffffffffffff1602179055503373ffffffffffffffffffffffffffffffffffffffff16827ff510b73b1a1418a065ffaf41dc23a2ef0e4d53567f868128f2ea577023bb54cc60405160405180910390a35050565b6000808154809291906106d4906111ff565b91905055506040518060c0016040528060005481526020013373ffffffffffffffffffffffffffffffffffffffff168152602001600073ffffffffffffffffffffffffffffffffffffffff1681526020018381526020018281526020016000151581525060016000805481526020019081526020016000206000820151816000015560208201518160010160006101000a81548173ffffffffffffffffffffffffffffffffffffffff021916908373ffffffffffffffffffffffffffffffffffffffff16021790555060408201518160020160006101000a81548173ffffffffffffffffffffffffffffffffffffffff021916908373ffffffffffffffffffffffffffffffffffffffff1602179055506060820151816003019080519060200190610800929190610b1b565b50608082015181600401908051906020019061081d929190610b1b565b5060a08201518160050160006101000a81548160ff0219169083151502179055509050503373ffffffffffffffffffffffffffffffffffffffff166000547f1b39921b0c3b3e4abd130e7e0151bc5afe1f68079df42ee5627682c2841d9433848460405161088c929190610f52565b60405180910390a35050565b60005481565b60006001600083815260200190815260200160002090503373ffffffffffffffffffffffffffffffffffffffff168160010160009054906101000a900473ffffffffffffffffffffffffffffffffffffffff1673ffffffffffffffffffffffffffffffffffffffff16148061096257503373ffffffffffffffffffffffffffffffffffffffff168160020160009054906101000a900473ffffffffffffffffffffffffffffffffffffffff1673ffffffffffffffffffffffffffffffffffffffff16145b6109a1576040517f08c379a000000000000000000000000000000000000000000000000000000000815260040161099890610f89565b60405180910390fd5b8060050160009054906101000a900460ff16156109f3576040517f08c379a00000000000000000000000000000000000000000000000000000000081526004016109ea90610fe9565b60405180910390fd5b60018160050160006101000a81548160ff0219169083151502179055508060020160009054906101000a900473ffffffffffffffffffffffffffffffffffffffff1673ffffffffffffffffffffffffffffffffffffffff168160010160009054906101000a900473ffffffffffffffffffffffffffffffffffffffff1673ffffffffffffffffffffffffffffffffffffffff16837fbb9ddb6456449420650483e45fc8227727c1d6a1fc691cd8571ef4fb3e8f22fc60405160405180910390a45050565b6040518060c0016040528060008152602001600073ffffffffffffffffffffffffffffffffffffffff168152602001600073ffffffffffffffffffffffffffffffffffffffff16815260200160608152602001606081526020016000151581525090565b828054610b27906111cd565b90600052602060002090601f016020900481019282610b495760008555610b90565b82601f10610b6257805160ff1916838001178555610b90565b82800160010185558215610b90579182015b82811115610b8f578251825591602001919060010190610b74565b5b509050610b9d9190610ba1565b5090565b5b80821115610bba576000816000905550600101610ba2565b5090565b6000610bd1610bcc846110e6565b6110b5565b905082815260208101848484011115610be957600080fd5b610bf484828561118b565b509392505050565b600082601f830112610c0d57600080fd5b8135610c1d848260208601610bbe565b91505092915050565b600081359050610c35816112e6565b92915050565b60008060408385031215610c4e57600080fd5b600083013567ffffffffffffffff811115610c6857600080fd5b610c7485828601610bfc565b925050602083013567ffffffffffffffff811115610c9157600080fd5b610c9d85828601610bfc565b9150509250929050565b600060208284031215610cb957600080fd5b6000610cc784828501610c26565b91505092915050565b610cd981611143565b82525050565b610ce881611143565b82525050565b610cf781611155565b82525050565b610d0681611155565b82525050565b6000610d1782611116565b610d218185611121565b9350610d3181856020860161119a565b610d3a816112d5565b840191505092915050565b6000610d5082611116565b610d5a8185611132565b9350610d6a81856020860161119a565b610d73816112d5565b840191505092915050565b6000610d8b602c83611132565b91507f4f6e6c792072696465207061727469636970616e74732063616e20636f6d706c60008301527f65746520746865207269646500000000000000000000000000000000000000006020830152604082019050919050565b6000610df1601283611132565b91507f5269646520616c72656164792074616b656e00000000000000000000000000006000830152602082019050919050565b6000610e31600f83611132565b91507f496e76616c6964207269646520494400000000000000000000000000000000006000830152602082019050919050565b6000610e71601683611132565b91507f5269646520616c726561647920636f6d706c65746564000000000000000000006000830152602082019050919050565b600060c083016000830151610ebc6000860182610f34565b506020830151610ecf6020860182610cd0565b506040830151610ee26040860182610cd0565b5060608301518482036060860152610efa8282610d0c565b91505060808301518482036080860152610f148282610d0c565b91505060a0830151610f2960a0860182610cee565b508091505092915050565b610f3d81611181565b82525050565b610f4c81611181565b82525050565b60006040820190508181036000830152610f6c8185610d45565b90508181036020830152610f808184610d45565b90509392505050565b60006020820190508181036000830152610fa281610d7e565b9050919050565b60006020820190508181036000830152610fc281610de4565b9050919050565b60006020820190508181036000830152610fe281610e24565b9050919050565b6000602082019050818103600083015261100281610e64565b9050919050565b600060208201905081810360008301526110238184610ea4565b905092915050565b60006020820190506110406000830184610f43565b92915050565b600060c08201905061105b6000830189610f43565b6110686020830188610cdf565b6110756040830187610cdf565b81810360608301526110878186610d45565b9050818103608083015261109b8185610d45565b90506110aa60a0830184610cfd565b979650505050505050565b6000604051905081810181811067ffffffffffffffff821117156110dc576110db6112a6565b5b8060405250919050565b600067ffffffffffffffff821115611101576111006112a6565b5b601f19601f8301169050602081019050919050565b600081519050919050565b600082825260208201905092915050565b600082825260208201905092915050565b600061114e82611161565b9050919050565b60008115159050919050565b600073ffffffffffffffffffffffffffffffffffffffff82169050919050565b6000819050919050565b82818337600083830152505050565b60005b838110156111b857808201518184015260208101905061119d565b838111156111c7576000848401525b50505050565b600060028204905060018216806111e557607f821691505b602082108114156111f9576111f8611277565b5b50919050565b600061120a82611181565b91507fffffffffffffffffffffffffffffffffffffffffffffffffffffffffffffffff82141561123d5761123c611248565b5b600182019050919050565b7f4e487b7100000000000000000000000000000000000000000000000000000000600052601160045260246000fd5b7f4e487b7100000000000000000000000000000000000000000000000000000000600052602260045260246000fd5b7f4e487b7100000000000000000000000000000000000000000000000000000000600052604160045260246000fd5b6000601f19601f8301169050919050565b6112ef81611181565b81146112fa57600080fd5b5056fea26469706673582212203688ea50c16e5c560c1a01e42a0f3676c1135a197920f1700c6a72604a6a011064736f6c63430008000033",
  "linkReferences": {},
  "deployedLinkReferences": {}
}